:10000000020F38120F67120F1C120D38E4F50AF5B3
:100010000B752E00752F007530227531007532007A
:100020007533237534007535007536247B007A00EE
:1000300079211209C3752E00752F00753026753190
:100040000075320075332775340075350075362814
:100050007B007A007925120AA5E5296523600685CB
:1000600023291208C0D2A130B20302051F752E0049
:10007000752F007530227531007532007533237588
:1000800034007535007536247B007A007921120919
:10009000C3C2A1120DBE30B2FD750A00750B01205E
:1000A000B211120DBE20B208050BE50B7002050A55
:1000B00030B2FDE50A60030204F1E50B14B4070059
:1000C00040030204F19000D375F003A4C58325F02A
:1000D000C583730200E802019C02022A0202B802F0
:1000E000034F0203DE02046D85212A20B213120D94
:1000F000BE20B208050BE50B7002050A30B2FD8088
:100100005020B124120DBE30B1FDE5217009E52467
:10011000640C700375210CE5217009E524641870E6
:10012000037521181521802920B026120DBE30B08C
:10013000FDE521640B7009E524640C70037521FF53
:10014000E52164177009E524641870037521FF0523
:1001500021E52A6521600685212A1208C07BFF7AE5
:100160000F799D7D057F01120E66120F0DE5217539
:10017000F00A842430FB7D057F01120ED4E5217541
:10018000F00A84E5F02430FF120EFD120F0DE50B8E
:100190006401450A70030200E80204F185222A2066
:1001A000B213120DBE20B208050BE50B7002050A52
:1001B00030B2FD802820B111120DBE30B1FDE52214
:1001C000700375223C1522801420B011120DBE3030
:1001D000B0FDE522643B70037522FF0522E52A6528
:1001E00022600885222A1208C080317BFF7A0F79AD
:1001F0009D7D087F01120E66120F0DE52275F00A33
:10020000842430FB7D087F01120ED4E52275F00AAC
:1002100084E5F02430FF120EFD120F0DE50B640291
:10022000450A700302019C0204F185232A20B213BF
:10023000120DBE20B208050BE50B7002050A30B2A4
:10024000FD802820B111120DBE30B1FDE5237003F1
:1002500075233C1523801420B011120DBE30B0FD63
:10026000E523643B70037523FF0523E52A652360BE
:100270000885232A1208C080317BFF7A0F799D7D83
:100280000B7F01120E66120F0DE52375F00A842410
:1002900030FB7D0B7F01120ED4E52375F00A84E557
:1002A000F02430FF120EFD120F0DE50B6403450A1A
:1002B000700302022A0204F185252A20B213120DCE
:1002C000BE20B208050BE50B7002050A30B2FD80B6
:1002D0002920B113120DBE30B1FDE5256401700374
:1002E0007525081525801320B010120DBE30B0FD05
:1002F000E52564077002F5250525E52A65256008D2
:1003000085252A1208C080397BFF7A0F79A07D02EB
:100310007F02120E66120F0DE52575F003A424BAB4
:10032000F582E4340FF583E493FB740193FA7402CD
:1003300093F97D027F02120E667F20120EFD120FCE
:100340000DE50B6404450A70030202B80204F1854E
:10035000262A20B213120DBE20B208050BE50B7041
:1003600002050A30B2FD802920B113120DBE30B152
:10037000FDE526640170037526201526801320B044
:1003800010120DBE30B0FDE526641F7002F5260583
:1003900026E52A6526600885262A1208C080317B5A
:1003A000FF7A0F799D7D067F02120E66120F0DE512
:1003B0002675F00A842430FB7D067F02120ED4E5F8
:1003C0002675F00A84E5F02430FF120EFD120F0DA1
:1003D000E50B6405450A700302034F0204F185270B
:1003E0002A20B213120DBE20B208050BE50B7002D5
:1003F000050A30B2FD802920B113120DBE30B1FDC7
:10040000E5276401700375270D1527801320B010B0
:10041000120DBE30B0FDE527640C7002F5270527EC
:10042000E52A6527600885272A1208C080317BFFEE
:100430007A0F799D7D097F02120E66120F0DE52756
:1004400075F00A842430FB7D097F02120ED4E52763
:1004500075F00A84E5F02430FF120EFD120F0DE551
:100460000B6406450A70030203DE0204F185282AA4
:1004700020B213120DBE20B208050BE50B70020569
:100480000A30B2FD801820B10A120DBE30B1FD1540
:1004900028800B20B008120DBE30B0FD0528E52ADB
:1004A0006528600885282A1208C0803A7BFF7A0FE9
:1004B00079A47D0C7F02120E66120F0D7BFF7A0F5E
:1004C00079A97D0C7F02120E66E52875F00A842456
:1004D00030FF120EFDE52875F00A84E5F02430FFA8
:1004E000120EFD120F0DE50B6407450A700302049E
:1004F0006DC3E50B9408E50A9400500302009FE5E4
:1005000022FD7C00752F18C200AB23AF21120C43D3
:1005100085282EAB27AD26AF25120CCF120F1C302D
:10052000B3030208A47F01120E267BFF7A0F79AC79
:100530007D017F01120E667B307D067F02120ED494
:100540007F30120EFD7F3A120EFD7F30120EFD7FBE
:1005500030120EFD120DBE750E00750F0130B3FD89
:10056000E4F50CF50DF508F50920B311120DBE20C8
:10057000B308050FE50F7002050E30B3FDE50E6000
:1005800003020896E50F24FE700302072A046003A5
:100590000208967BFF7A0F79AC7D017F01120E660F
:1005A000850D2A20B313120DBE20B308050FE50FE9
:1005B0007002050E30B3FD806E20B132120DBE30D8
:1005C000B1FDE50D450C700BE524640C7005F50CD0
:1005D000750D0CE50D450C700BE52464187005F5E0
:1005E0000C750D18E50D150D7002150C803920B035
:1005F00036120DBE30B0FDE50D640B450C700CE5F8
:1006000024640C700674FFF50CF50DE50D641745B8
:100610000C700CE5246418700674FFF50CF50D05DC
:100620000DE50D7002050CAF2AEF3395E0FEEF6586
:100630000D7003EE650C6057850D2AAE0CAF0D7C76
:10064000007D0A120BEEEF2430FB7D067F02120EB6
:10065000D4AE0CAF0D7C007D0A120BEEED2430FF02
:10066000120EFD7F3A120EFDAE08AF097C007D0A26
:10067000120BEEEF2430FF120EFDAE08AF097C0026
:100680007D0A120BEEED2430FF120EFD02071C7BDB
:10069000FF7A0F799D7D067F02120E667F3A120E59
:1006A000FDAE08AF097C007D0A120BEEEF2430FF8F
:1006B000120EFDAE08AF097C007D0A120BEEED2490
:1006C00030FF120EFD120F0DAE0CAF0D7C007D0A37
:1006D000120BEEEF2430FB7D067F02120ED4AE0C1F
:1006E000AF0D7C007D0A120BEEED2430FF120EFDE3
:1006F0007F3A120EFDAE08AF097C007D0A120BEEA8
:10070000EF2430FF120EFDAE08AF097C007D0A1207
:100710000BEEED2430FF120EFD120F0DE50F6401FC
:10072000450E70030205A00208967BFF7A0F79AC94
:100730007D017F01120E6685092A20B313120DBEBA
:1007400020B308050FE50F7002050E30B3FD803DA4
:1007500020B11B120DBE30B1FDE50945087005F54D
:100760000875093CE509150970021508801F20B0BD
:100770001C120DBE30B0FDE509643B4508700674DF
:10078000FFF508F5090509E50970020508AF2AEF2C
:100790003395E0FEEF65097003EE65086057850943
:1007A0002AAE0CAF0D7C007D0A120BEEEF2430FB5D
:1007B0007D067F02120ED4AE0CAF0D7C007D0A12B6
:1007C0000BEEED2430FF120EFD7F3A120EFDAE0847
:1007D000AF097C007D0A120BEEEF2430FF120EFDF4
:1007E000AE08AF097C007D0A120BEEED2430FF123B
:1007F0000EFD020886AE0CAF0D7C007D0A120BEEDA
:10080000EF2430FB7D067F02120ED4AE0CAF0D7CC0
:10081000007D0A120BEEED2430FF120EFD7F3A121E
:100820000EFD7BFF7A0F799D7D097F02120E661205
:100830000F0DAE0CAF0D7C007D0A120BEEEF2430D5
:10084000FB7D067F02120ED4AE0CAF0D7C007D0A3C
:10085000120BEEED2430FF120EFD7F3A120EFDAEAC
:1008600008AF097C007D0A120BEEEF2430FF120E58
:10087000FDAE08AF097C007D0A120BEEED2430FFBF
:10088000120EFD120F0DE50F6402450E70030207F4
:10089000377F01120E26C3E50F9403E50E94005036
:1008A00003020569E521B50D12E4B50C0EE522B58C
:1008B0000909E4B50805D2B7020011C2B702001158
:1008C00085252E85262F852730852831AB23AD221F
:1008D000AF218F2B8D2C8B2DE52B75F00A842430C6
:1008E000FB7D057F01120ED4E52B75F00A84E5F03F
:1008F0002430FF120EFD7F3A120EFDE52C75F00A32
:10090000842430FF120EFDE52C75F00A84E5F024F6
:1009100030FF120EFD7F3A120EFDE52D75F00A84B0
:100920002430FF120EFDE52D75F00A84E5F0243029
:10093000FF120EFD7BFF7A0F79887D017F02120E78
:1009400066E52E75F003A424BAF582E4340FF5832E
:10095000E493FB740193FA740293F97D027F02120F
:100960000E667F20120EFDE52F75F00A842430FFFD
:10097000120EFDE52F75F00A84E5F02430FF120E0B
:10098000FD7F2F120EFDE53075F00A842430FF1232
:100990000EFDE53075F00A84E5F02430FF120EFDFF
:1009A0007BFF7A0F7999120E46E53175F00A84249F
:1009B00030FF120EFDE53175F00A84E5F02430FFBA
:1009C000020EFD8B2B8A2C892D120F4B7FD0120E1D
:1009D00085E4FF120E85120F4B7FD1120E85D201D6
:1009E000120D948F39D201120D948F38C201120D5D
:1009F000948F37120F6053397FE539C4540F75F067
:100A00000AA4FFE539540F2FAB31AA32A933120BD8
:100A1000BA53387FE538C4540F75F00AA4FFE5389F
:100A2000540F2FAB2EAA2FA930120BBAE53730E6A0
:100A300033AB34AA35A936740C120BBAE53730E55E
:100A400004D2008002C20053371FE537C4540F752B
:100A5000F00AA4FFE537540F2FAB2BAA2CA92D12B7
:100A60000BBA803EAB34AA35A9367418120BBA53B0
:100A7000373FE537C4540F75F00AA4FFE537540F2C
:100A80002FAB2BAA2CA92D120BBAAB2BAA2CA92D5C
:100A9000120B74C3940C748094805004C2008002C2
:100AA000D200A200228B2B8A2C892D120F4B7FD0D3
:100AB000120E857F03120E85120F4B7FD1120E8509
:100AC000D201120D94AB2BAA2CA92DEF120BBAD286
:100AD00001120D94AB2EAA2FA930EF120BBAD2013E
:100AE000120D94AB31AA32A933EF120BBAC2011224
:100AF0000D94AB34AA35A936EF120BBA120F60ABC6
:100B00002BAA2CA92D120B745407120BBAAB2EAAC8
:100B10002FA930120B74543F120BBAAB2EAA2FA977
:100B200030120B74FFC4540F75F00AA4FEEF540F7B
:100B30002E120BBAAB31AA32A933120B74541F1206
:100B40000BBAAB31AA32A933120B74FFC4540F7520
:100B5000F00AA4FEEF540F2E120BBAAB34AA35A93B
:100B600036120B74FFC4540F75F00AA4FEEF540F35
:100B70002E020BBABB010689828A83E0225002E76B
:100B800022BBFE02E32289828A83E49322BB010C0A
:100B9000E58229F582E5833AF583E0225006E925CE
:100BA00082F8E622BBFE06E92582F8E222E58229E8
:100BB000F582E5833AF583E49322BB010689828AB4
:100BC00083F0225002F722BBFE01F322F8BB010D95
:100BD000E58229F582E5833AF583E8F0225006E9BB
:100BE0002582C8F622BBFE05E92582C8F222BC0098
:100BF0000BBE0029EF8DF084FFADF022E4CCF87538
:100C0000F008EF2FFFEE33FEEC33FCEE9DEC984046
:100C100005FCEE9DFE0FD5F0E9E4CEFD22EDF8F5E2
:100C2000F0EE8420D21CFEADF075F008EF2FFFED42
:100C300033FD4007985006D5F0F222C398FD0FD53A
:100C4000F0EA228F2B8C2C8D2D8B2EE52E75F00A41
:100C500084C454F0FFE52E75F00A84E5F04FF52EBC
:100C6000AE2CAF2D7C007D0A120BEEEFC4F8540FB2
:100C7000C868FBEEC454F048FAAE2CAF2D7C007D62
:100C80000A120BEEEC4AF52CED4BF52DE52B75F029
:100C90000A84C454F0FFE52B75F00A84E5F04FF5A3
:100CA0002BE52F640C7009432B40300003432B20AD
:100CB000120F4B7FD0120E85E4FF120E85AF2E125D
:100CC0000E85AF2D120E85AF2B120E85020F608F91
:100CD0002B8D2C8B2DE52C75F00A84C454F0FFE588
:100CE0002C75F00A84E5F04FF52CE52D75F00A849B
:100CF000C454F0FFE52D75F00A84E5F04FF52DE5BD
:100D00002E75F00A84C454F0FFE52E75F00A84E5D0
:100D1000F04FF52E120F4B7FD0120E857F03120E6F
:100D200085AF2B120E85AF2C120E85AF2D120E85BE
:100D3000AF2E120E85020F60C2A0C2A27F147E00E9
:100D4000120E067F03120EC3D2A2C2A27F057E003E
:100D5000120E067F03120EC3D2A2C2A27F64120F2C
:100D6000447F03120EC3D2A2C2A27F017E00120EE4
:100D7000067F02120EC3D2A2C2A21F7E00120E066E
:100D80007F28120E267F0C120E267F01120E267F60
:100D900006020E26E4FFFEEEC39408748094805091
:100DA00013D291D290EF25E0FF309103430701C2A7
:100DB000900E80E3300103020F52120F59227F0F71
:100DC0007E00E4FDFCC3ED9FEC9E5015E4FBFA0BA6
:100DD000BB00010AEB647D4A70F50DBD00010C807B
:100DE000E4228F2B120F4B7FD0120E85AF2B120EE9
:100DF00085120F4B7FD1120E85C201120D948F2CDC
:100E0000120F60AF2C22E4FDFCC3ED9FEC9E501549
:100E1000E4FBFA0BBB00010AEB647B4A70F50DBDE5
:100E200000010C80E422AE07C2A0120EBCD2A2C206
:100E3000A2EF24FE60030470077F027E00020E060C
:100E40007F25120F44228B358A368937E4FDAB3576
:100E5000AA36A9378D82758300120B8DFF600612AA
:100E60000EFD0D80E9228B328A338934EF64017FD5
:100E7000C070027F80ED142FFF120E26AB32AA3312
:100E8000A934020E46E4FEEEC394087480948050A8
:100E90000FEF339291D290C290EF25E0FF0E80E7E2
:100EA000020F2B8F2B8D2C120F4B7FD0120E85AF84
:100EB0002B120E85AF2C120E85020F60120EEBD294
:100EC000A2C2A2EFA2E392A7A2E292A6A2E192A5F9
:100ED0001392A4228B32EF64017FC070027F80EDF9
:100EE000142FFF120E26AF32020EFDEF3392A7EF42
:100EF000A2E692A6A2E592A5A2E492A422AE07D20F
:100F0000A0120EBCD2A2C2A27F29020F447F307E63
:100F100075EF1FAC0670011E4C70F622E4FF120D37
:100F2000E2AD0753057FE4FF020EA3D291D290A257
:100F3000919201C290A20122787FE4F6D8FD7581DA
:100F400039020003AE071FEE70FA22D290C291C29E
:100F50009022C291D290C29022D291D290C290227D
:100F6000C291D290D29122D290D2912253554E006A
:100F70004D4F4E00545545005745440054485500C8
:100F80004652490053415400202020202020202098
:100F90002020202020202020002F3230005F5F0002
:100FA0005F5F5F005F5F5F5F003230004341492059
:100FB0004441542042414F205448554300FF0F6C98
:100FC000FF0F70FF0F74FF0F78FF0F7CFF0F80FF84
:020FD0000F848C
:00000001FF
