:100000000211140210FAD2B2D2AFD288D2A81211C1
:10001000431210EB120F07E4F50AF50BF50CF50D82
:10002000752E00752F007530227531007532007500
:1000300033237534007535007536247B007A0079DA
:1000400021120B929200752E00752F0075302675C7
:1000500031007532007533277534007535007536FB
:10006000287B007A007925120C74E5296523602924
:10007000852329E524640C70187BFF3000067A1173
:10008000797980047A11797C7D0E7F011210358098
:10009000057F01120FF5120A8FC2A1D3E50B940060
:1000A000E50A94005003020A1AD2A1E50A6003028D
:1000B00009E5E50B24FE70030205E1147003020953
:1000C000AB240260030209E530B3030209E5120F15
:1000D0008D30B3FD750C00750D01E50B6401450A0B
:1000E00060030205D820B3147F0FFE120F9120B3D6
:1000F00008050DE50D7002050C30B3FDE50C60033D
:100100000205C2E50D14B4070040030205C29001C8
:100110001C75F003A4C58325F0C583730201310269
:1001200001FE0202A00203420203ED020490020556
:10013000307BFF7A11797F7D057F01121035121017
:10014000DCE52175F00A842430FB7D057F01121067
:10015000A3E52175F00A84E5F02430FF1210CC12DB
:1001600010DCE50D6401450C60030205C2E50B647B
:1001700001450A60030205C285212A20B3167F0FBC
:10018000FE120F9120B308050DE50D7002050C302D
:10019000B3FD805020B124120F8D30B1FDE52170E8
:1001A00009E524640C700375210CE5217009E52430
:1001B000641870037521181521802920B026120FAC
:1001C0008D30B0FDE521640B7009E524640C7003EB
:1001D0007521FFE52164177009E524641870037523
:1001E00021FF0521E52A6521600685212A120A8F53
:1001F000E50D6401450C70030201620205C27BFF3C
:100200007A11797F7D087F011210351210DCE5220A
:1002100075F00A842430FB7D087F011210A3E522CB
:1002200075F00A84E5F02430FF1210CC1210DCE5E2
:100230000D6402450C60030205C2E50B6401450A2A
:1002400060030205C285222A20B3167F0FFE120F1B
:100250009120B308050DE50D7002050C30B3FD804B
:100260002820B111120F8D30B1FDE52270037522E7
:100270003C1522801420B011120F8D30B0FDE52204
:10028000643B70037522FF0522E52A65226006851E
:10029000222A120A8FE50D6402450C60920205C203
:1002A0007BFF7A11797F7D0B7F011210351210DCF4
:1002B000E52375F00A842430FB7D0B7F011210A327
:1002C000E52375F00A84E5F02430FF1210CC1210FB
:1002D000DCE50D6403450C60030205C2E50B640117
:1002E000450A60030205C285232A20B3167F0FFE4C
:1002F000120F9120B308050DE50D7002050C30B307
:10030000FD802820B111120F8D30B1FDE52370035F
:1003100075233C1523801420B011120F8D30B0FDD1
:10032000E523643B70037523FF0523E52A652360FD
:100330000685232A120A8FE50D6403450C6092029C
:1003400005C27BFF7A1179827D027F02121035127D
:1003500010DCE52575F003A424ACF582E43411F536
:1003600083E493FB740193FA740293F97D027F0294
:100370001210357F201210CC1210DCE50D640445FC
:100380000C60030205C2E50B6401450A6003020527
:10039000C285252A20B3167F0FFE120F9120B308C5
:1003A000050DE50D7002050C30B3FD802920B11359
:1003B000120F8D30B1FDE525640170037525081518
:1003C00025801320B010120F8D30B0FDE525640795
:1003D0007002F5250525E52A6525600685252A1282
:1003E0000A8FE50D6404450C60910205C27BFF7A1B
:1003F00011797F7D067F021210351210DCE526751B
:10040000F00A842430FB7D067F021210A3E52675D6
:10041000F00A84E5F02430FF1210CC1210DCE50D58
:100420006405450C60030205C2E50B6401450A60E2
:10043000030205C285262A20B3167F0FFE120F91F4
:1004400020B308050DE50D7002050C30B3FD8029C1
:1004500020B113120F8D30B1FDE5266401700375D4
:1004600026201526801320B010120F8D30B0FDE528
:1004700026641F7002F5260526E52A652660068596
:10048000262A120A8FE50D6405450C60910205C20B
:100490007BFF7A11797F7D097F021210351210DC03
:1004A000E52775F00A842430FB7D097F021210A332
:1004B000E52775F00A84E5F02430FF1210CC121005
:1004C000DCE50D6406450C60030205C285272A2081
:1004D000B31EE50B6401450A70167F0FFE120F91E3
:1004E00020B308050DE50D7002050C30B3FD802921
:1004F00020B113120F8D30B1FDE527640170037533
:10050000270D1527801320B010120F8D30B0FDE598
:1005100027640C7002F5270527E52A652760068504
:10052000272A120A8FE50D6406450C60940205C265
:100530007BFF7A1179867D0C7F021210351210DC58
:100540007BFF7A11798B7D0C7F02121035E52875BF
:10055000F00A842430FF1210CCE52875F00A84E5F7
:10056000F02430FF1210CC1210DCE50D6407450CAE
:100570007050E50B6401450A704885282A20B3169F
:100580007F0FFE120F9120B308050DE50D700205D7
:100590000C30B3FD801820B10A120F8D30B1FD155B
:1005A00028800B20B008120F8D30B0FD0528E52AF9
:1005B0006528600685282A120A8FE50D6407450C18
:1005C00060A8C3E50D9408E50C940050030200DA1E
:1005D000050BE50B7002050AE50B6401450A0209EB
:1005E000E57F01120FF57BFF7A11798E7D017F0186
:1005F0001210357B307D067F021210A37F3012105F
:10060000CC7F3A1210CC7F301210CC7F301210CC3D
:10061000120F8D30B3030209E5120F9175100075AA
:10062000110130B3FDE4F50EF50FF508F509E50B02
:100630006402450A60030209A320B3147F0FFE126F
:100640000F9120B3080511E5117002051030B3FDBC
:10065000E510600302098DE51124FE700302080B0A
:1006600004600302098D7BFF7A11797F7D067F028A
:100670001210357F3A1210CCAE08AF097C007D0A0B
:10068000120DBDEF2430FF1210CCAE08AF097C0074
:100690007D0A120DBDED2430FF1210CC1210DCAE1D
:1006A0000EAF0F7C007D0A120DBDEF2430FB7D06DE
:1006B0007F021210A3AE0EAF0F7C007D0A120DBD9B
:1006C000ED2430FF1210CC7F3A1210CCAE08AF09E7
:1006D0007C007D0A120DBDEF2430FF1210CCAE0855
:1006E000AF097C007D0A120DBDED2430FF1210CC45
:1006F0001210DC7BFF7A11798E7D017F011210359B
:10070000E51164014510600302098DE50B640245A3
:100710000A600302098D850F2A20B3167F0FFE128F
:100720000F9120B3080511E5117002051030B3FDDB
:10073000806E20B132120F8D30B1FDE50F450E7085
:100740000BE524640C7005F50E750F0CE50F450ED6
:10075000700BE52464187005F50E750F18E50F157C
:100760000F7002150E803920B036120F8D30B0FD9B
:10077000E50F640B450E700CE524640C700674FFE5
:10078000F50EF50FE50F6417450E700CE52464189F
:10079000700674FFF50EF50F050FE50F7002050EDC
:1007A000AF2AEF3395E0FEEF650F7003EE650E7034
:1007B00003020700850F2AAE0EAF0F7C007D0A12E0
:1007C0000DBDEF2430FB7D067F021210A3AE0EAFED
:1007D0000F7C007D0A120DBDED2430FF1210CC7F7E
:1007E0003A1210CCAE08AF097C007D0A120DBDEFA5
:1007F0002430FF1210CCAE08AF097C007D0A120D28
:10080000BDED2430FF1210CC020700AE0EAF0F7CFE
:10081000007D0A120DBDEF2430FB7D067F02121011
:10082000A3AE0EAF0F7C007D0A120DBDED2430FF8C
:100830001210CC7F3A1210CC7BFF7A11797F7D09A0
:100840007F021210351210DCAE0EAF0F7C007D0A55
:10085000120DBDEF2430FB7D067F021210A3AE0EF9
:10086000AF0F7C007D0A120DBDED2430FF1210CCBD
:100870007F3A1210CCAE08AF097C007D0A120DBD84
:10088000EF2430FF1210CCAE08AF097C007D0A12B5
:100890000DBDED2430FF1210CC1210DC7BFF7A115D
:1008A000798E7D017F01121035E5116402451060DB
:1008B0000302098DE50B6402450A600302098D8578
:1008C000092A20B3167F0FFE120F9120B3080511DD
:1008D000E5117002051030B3FD803D20B11B120FF1
:1008E0008D30B1FDE50945087005F50875093CE551
:1008F00009150970021508801F20B01C120F8D30D9
:10090000B0FDE509643B4508700674FFF508F5097C
:100910000509E50970020508AF2AEF3395E0FEEFFF
:1009200065097003EE6508605485092AAE0EAF0FA5
:100930007C007D0A120DBDEF2430FB7D067F021284
:1009400010A3AE0EAF0F7C007D0A120DBDED24305A
:10095000FF1210CC7F3A1210CCAE08AF097C007D9C
:100960000A120DBDEF2430FF1210CCAE08AF097C87
:10097000007D0A120DBDED2430FF1210CCE511648C
:1009800002451070030208A97F01120FF5C3E5119B
:100990009403E5109400500302062E050BE50B703E
:1009A00002050AE50B6402450A803A7F01120FF541
:1009B0007BFF7A11799F7D027F011210357B307D9C
:1009C000067F021210A37F301210CC7F3A1210CC97
:1009D0007F301210CC7F301210CC120F8DE50B64DB
:1009E00003450A60F8C3E50B9404E50A940050033C
:1009F00002009BE522FD7C0085242FA2009201AB22
:100A000023AF21120E1285282EAB27AD26AF25125B
:100A10000E9E1210EBE4F50AF50B20B343C2A112AF
:100A20000F8D20B338E524640C700B740C2521F570
:100A3000217524188014C3E521940C74809480409F
:100A40000674F42521F52175240CE522FD7C008532
:100A5000242FA2009201AB23AF21120E1230B3FD5E
:100A6000E521B50F25E4B50E21E522B5091CE4B555
:100A70000818D2B77F807E961210E0750E00750FB1
:100A800018750800750918020020C2B702002085F9
:100A9000252E85262F852730852831AB23AD22AF23
:100AA000218F2B8D2C8B2DE52B75F00A842430FBA8
:100AB0007D057F011210A3E52B75F00A84E5F02473
:100AC00030FF1210CC7F3A1210CCE52C75F00A845E
:100AD0002430FF1210CCE52C75F00A84E5F02430A8
:100AE000FF1210CC7F3A1210CCE52D75F00A842449
:100AF00030FF1210CCE52D75F00A84E5F02430FFAC
:100B00001210CC7BFF7A1179647D017F02121035BF
:100B1000E52E75F003A424ACF582E43411F583E4EA
:100B200093FB740193FA740293F97D027F02121011
:100B3000357F201210CCE52F75F00A842430FF1287
:100B400010CCE52F75F00A84E5F02430FF1210CCAC
:100B50007F2F1210CCE53075F00A842430FF12107C
:100B6000CCE53075F00A84E5F02430FF1210CC7B20
:100B7000FF7A117975121015E53175F00A84243069
:100B8000FF1210CCE53175F00A84E5F02430FF0245
:100B900010CC8B2B8A2C892D1211277FD012105448
:100BA000E4FF1210541211277FD1121054D20212F6
:100BB0000F638F39D202120F638F38C202120F6394
:100BC0008F3712113C53397FE539C4540F75F00A41
:100BD000A4FFE539540F2FAB31AA32A933120D8986
:100BE00053387FE538C4540F75F00AA4FFE5385434
:100BF0000F2FAB2EAA2FA930120D89E53730E6331F
:100C0000AB34AA35A936740C120D89E53730E504EA
:100C1000D2018002C20153371FE537C4540F75F06B
:100C20000AA4FFE537540F2FAB2BAA2CA92D120DC8
:100C300089803EAB34AA35A9367418120D89533712
:100C40003FE537C4540F75F00AA4FFE537540F2F62
:100C5000AB2BAA2CA92D120D89AB2BAA2CA92D12D6
:100C60000D43C3940C748094805004C2018002D25E
:100C700001A201228B2B8A2C892D1211277FD012E1
:100C800010547F031210541211277FD1121054D226
:100C900002120F63AB2BAA2CA92DEF120D89D202E1
:100CA000120F63AB2EAA2FA930EF120D89D20212B8
:100CB0000F63AB31AA32A933EF120D89C202120FB2
:100CC00063AB34AA35A936EF120D8912113CAB2B58
:100CD000AA2CA92D120D435407120D89AB2EAA2F51
:100CE000A930120D43543F120D89AB2EAA2FA93003
:100CF000120D43FFC4540F75F00AA4FEEF540F2EDB
:100D0000120D89AB31AA32A933120D43541F120DB3
:100D100089AB31AA32A933120D43FFC4540F75F0C9
:100D20000AA4FEEF540F2E120D89AB34AA35A93652
:100D3000120D43FFC4540F75F00AA4FEEF540F2E9A
:100D4000020D89BB010689828A83E0225002E722D4
:100D5000BBFE02E32289828A83E49322BB010CE575
:100D60008229F582E5833AF583E0225006E925825F
:100D7000F8E622BBFE06E92582F8E222E58229F5A3
:100D800082E5833AF583E49322BB010689828A8354
:100D9000F0225002F722BBFE01F322F8BB010DE561
:100DA0008229F582E5833AF583E8F0225006E925A9
:100DB00082C8F622BBFE05E92582C8F222BC000BE0
:100DC000BE0029EF8DF084FFADF022E4CCF875F081
:100DD00008EF2FFFEE33FEEC33FCEE9DEC98400560
:100DE000FCEE9DFE0FD5F0E9E4CEFD22EDF8F5F026
:100DF000EE8420D21CFEADF075F008EF2FFFED332E
:100E0000FD4007985006D5F0F222C398FD0FD5F0AB
:100E1000EA228F2B8C2C8D2D8B2EE52E75F00A84DB
:100E2000C454F0FFE52E75F00A84E5F04FF52EAEC0
:100E30002CAF2D7C007D0A120DBDEFC4F8540FC8F5
:100E400068FBEEC454F048FAAE2CAF2D7C007D0A4E
:100E5000120DBDEC4AF52CED4BF52DE52B75F00A86
:100E600084C454F0FFE52B75F00A84E5F04FF52BB0
:100E7000E52F640C7009432B40300103432B2012F3
:100E800011277FD0121054E4FF121054AF2E12100D
:100E900054AF2D121054AF2B12105402113C8F2B53
:100EA0008D2C8B2DE52C75F00A84C454F0FFE52CB5
:100EB00075F00A84E5F04FF52CE52D75F00A84C431
:100EC00054F0FFE52D75F00A84E5F04FF52DE52E81
:100ED00075F00A84C454F0FFE52E75F00A84E5F03D
:100EE0004FF52E1211277FD01210547F0312105489
:100EF000AF2B121054AF2C121054AF2D121054AF50
:100F00002E12105402113CC2A0C2A27F147E001205
:100F10000FD57F03121092D2A2C2A27F057E0012CB
:100F20000FD57F03121092D2A2C2A27F64121120A9
:100F30007F03121092D2A2C2A27F017E00120FD5AF
:100F40007F02121092D2A2C2A21F7E00120FD57F82
:100F500028120FF57F0C120FF57F01120FF57F0697
:100F6000020FF5E4FFFEEEC39408748094805013E2
:100F7000D291D290EF25E0FF309103430701C29058
:100F80000E80E330020302112E121135227F0F7EF4
:100F900000E4FDFCC3ED9FEC9E5015E4FBFA0BBB97
:100FA00000010AEB647D4A70F50DBD00010C80E480
:100FB000228F2B1211277FD0121054AF2B121054F6
:100FC0001211277FD1121054C202120F638F2C12FC
:100FD000113CAF2C22E4FDFCC3ED9FEC9E5015E4C8
:100FE000FBFA0BBB00010AEB647B4A70F50DBD00F8
:100FF000010C80E422AE07C2A012108BD2A2C2A2C2
:10100000EF24FE60030470077F027E00020FD57F8D
:1010100025121120228B358A368937E4FDAB35AA9B
:1010200036A9378D82758300120D5CFF60061210A1
:10103000CC0D80E9228B328A338934EF64017FC082
:1010400070027F80ED142FFF120FF5AB32AA33A987
:1010500034021015E4FEEEC3940874809480500F9F
:10106000EF339291D290C290EF25E0FF0E80E7021D
:1010700011078F2B8D2C1211277FD0121054AF2BFC
:10108000121054AF2C12105402113C1210BAD2A2FA
:10109000C2A2EFA2E392A7A2E292A6A2E192A513B6
:1010A00092A4228B32EF64017FC070027F80ED1426
:1010B0002FFF120FF5AF320210CCEF3392A7EFA241
:1010C000E692A6A2E592A5A2E492A422AE07D2A03F
:1010D00012108BD2A2C2A27F290211207F307E750E
:1010E000EF1FAC0670011E4C70F622E4FF120FB128
:1010F000AD0753057FE4FF021072C0E0050BE50B5E
:101100007002050AD0E032D291D290A2919202C22E
:1011100090A20222787FE4F6D8FD7581390200069C
:10112000AE071FEE70FA22D290C291C29022C291F5
:10113000D290C29022D291D290C29022C291D290EB
:10114000D29122D290D2912253554E004D4F4E0053
:1011500054554500574544005448550046524900EF
:101160005341540020202020202020202020202017
:1011700020202020002F323000504D00414D005FD4
:101180005F005F5F5F005F5F5F5F00323000434181
:1011900049204441542042414F2054485543004483
:1011A0004F4E4720484F2042414D2047494F00FFB6
:1011B0001148FF114CFF1150FF1154FF1158FF113E
:0411C0005CFF11605F
:00000001FF
