:100000000211A21211D1121186120FA0E4F50CF503
:100010000DF508F509F510F511752E00752F007511
:100020003022753100753200753323753400753513
:10003000007536247B007A007921120C2B92007512
:100040002E00752F0075302675310075320075331E
:10005000277534007535007536287B007A007925C0
:10006000120D0DE52965236029852329E524640CFB
:1000700070187BFF3000067A12790780047A1279B3
:100080000A7D0E7F011210D080057F0112109012A0
:100090000B28D2A130B203020ABB75080075090112
:1000A000752E00752F007530227531007532007580
:1000B00033237534007535007536247B007A00795A
:1000C00021120C2B12102630B2FD20B21112102872
:1000D00020B2080509E5097002050830B2FDE508FF
:1000E0006003020AADE50924FE70030206C704603E
:1000F00003020AAD30B303020AAD12102830B3FD7B
:10010000750C00750D01E5096401450860030206E0
:10011000BE20B3147F0FFE12102C20B308050DE58E
:100120000D7002050C30B3FDE50C600302068EE590
:100130000D14B40700400302068E90014875F003C9
:10014000A4C58325F0C5837302015D02023E02024D
:10015000F70203B002047202052C0205E67BFF7A67
:1001600012790D7D057F011210D0121177E52175EE
:10017000F00A842430FB7D057F0112113EE52175D4
:10018000F00A84E5F02430FF121167121177E50DB3
:100190006401450C600302068E85212A20B3167F78
:1001A0000FFE12102C20B308050DE50D7002050C92
:1001B00030B3FD806F20B21CE4F50CF50D7F0FFE0F
:1001C00012102C20B2080509E5097002050830B2AA
:1001D000FD02068E20B12412102830B1FDE52170F9
:1001E00009E524640C700375210CE5217009E524F0
:1001F000641870037521181521802920B02612106B
:100200002830B0FDE521640B7009E524640C70030F
:100210007521FFE52164177009E5246418700375E2
:1002200021FF0521E52A6521600685212A120B2878
:10023000E50D6401450C700302018E02068E7BFF02
:100240007A12790D7D087F011210D0121177E52204
:1002500075F00A842430FB7D087F0112113EE522EF
:1002600075F00A84E5F02430FF121167121177E56A
:100270000D6402450C600302068E85222A20B31607
:100280007F0FFE12102C20B308050DE50D7002053E
:100290000C30B3FD804720B21CE4F50CF50D7F0F48
:1002A000FE12102C20B2080509E50970020508307D
:1002B000B2FD02068E20B11112102830B1FDE522E8
:1002C000700375223C1522801420B01112102830C2
:1002D000B0FDE522643B70037522FF0522E52A6527
:1002E00022600685222A120B28E50D6402450C7057
:1002F0000302026F02068E7BFF7A12790D7D0B7F5F
:10030000011210D0121177E52375F00A842430FB16
:100310007D0B7F0112113EE52375F00A84E5F02480
:1003200030FF121167121177E50D6403450C60036D
:1003300002068E85232A20B3167F0FFE12102C2072
:10034000B308050DE50D7002050C30B3FD804720A4
:10035000B21CE4F50CF50D7F0FFE12102C20B20834
:100360000509E5097002050830B2FD02068E20B1CC
:100370001112102830B1FDE523700375233C1523BD
:10038000801420B01112102830B0FDE523643B70BA
:10039000037523FF0523E52A6523600685232A12BA
:1003A0000B28E50D6403450C700302032802068E3A
:1003B0007BFF7A1279107D027F021210D012117722
:1003C000E52575F003A4242AF582E43412F583E4CC
:1003D00093FB740193FA740293F97D027F02121069
:1003E000D07F20121167121177E50D6404450C606F
:1003F0000302068E85252A20B3167F0FFE12102CCD
:1004000020B308050DE50D7002050C30B3FD8048E2
:1004100020B21CE4F50CF50D7F0FFE12102C20B25B
:10042000080509E5097002050830B2FD02068E20B4
:10043000B11312102830B1FDE52564017003752554
:10044000081525801320B01012102830B0FDE525C6
:1004500064077002F5250525E52A652560068525D2
:100460002A120B28E50D6404450C70030203E9020F
:10047000068E7BFF7A12790D7D067F021210D01254
:100480001177E52675F00A842430FB7D067F021281
:10049000113EE52675F00A84E5F02430FF1211675D
:1004A000121177E50D6405450C600302068E852662
:1004B0002A20B3167F0FFE12102C20B308050DE57D
:1004C0000D7002050C30B3FD804820B21CE4F50C21
:1004D000F50D7F0FFE12102C20B2080509E50970FA
:1004E00002050830B2FD02068E20B113121028302A
:1004F000B1FDE526640170037526201526801320C2
:10050000B01012102830B0FDE526641F7002F526E9
:100510000526E52A6526600685262A120B28E50DA4
:100520006405450C70030204A302068E7BFF7A1259
:10053000790D7D097F021210D0121177E52775F031
:100540000A842430FB7D097F0212113EE52775F0F5
:100550000A84E5F02430FF121167121177E50D646B
:1005600006450C600302068E85272A20B3167F0FEE
:10057000FE12102C20B308050DE50D7002050C309D
:10058000B3FD804820B21CE4F50CF50D7F0FFE1280
:10059000102C20B2080509E5097002050830B2FDEB
:1005A00002068E20B11312102830B1FDE527640138
:1005B000700375270D1527801320B01012102830F6
:1005C000B0FDE527640C7002F5270527E52A6527AD
:1005D000600685272A120B28E50D6406450C70037A
:1005E00002055D02068E7BFF7A1279147D0C7F0274
:1005F0001210D01211777BFF7A1279197D0C7F02CD
:100600001210D0E52875F00A842430FF121167E536
:100610002875F00A84E5F02430FF12116712117773
:10062000E50D6407450C706685282A20B3167F0FF8
:10063000FE12102C20B308050DE50D7002050C30DC
:10064000B3FD803620B21BE4F50CF50D7F0FFE12D2
:10065000102C20B2080509E5097002050830B2FD2A
:10066000802C20B10A12102830B1FD1528800B20F3
:10067000B00812102830B0FD0528E52A652860066C
:1006800085282A120B28E50D6407450C6092C3E506
:100690000D9408E50C94005003020106E522FD7C50
:1006A0000085242FA2009201AB23AF21120EAB854F
:1006B000282EAB27AD26AF25120F37121186E5097C
:1006C00064014508020AAD7F011210907BFF7A1287
:1006D000791C7D017F011210D07B307D067F0212D4
:1006E000113E7F301211677F3A1211677F3012116D
:1006F000677F3012116712102830B303020AAD125F
:10070000102C75100075110130B3FD750E00750FBA
:1007100018750A00750B18E50964024508600302A4
:100720000AAD20B3147F0FFE12102C20B308051160
:10073000E5117002051030B3FDE5106003020A9F59
:10074000E51124FE7003020909046003020A9F7B7D
:10075000FF7A12790D7D067F021210D07F3A1211B6
:1007600067AE0AAF0B7C007D0A120E56EF2430FFF5
:10077000121167AE0AAF0B7C007D0A120E56ED24F3
:1007800030FF121167121177AE0EAF0F7C007D0A99
:10079000120E56EF2430FB7D067F0212113EAE0E84
:1007A000AF0F7C007D0A120E56ED2430FF12116748
:1007B0007F3A121167AE0AAF0B7C007D0A120E560B
:1007C000EF2430FF121167AE0AAF0B7C007D0A12D6
:1007D0000E56ED2430FF1211671211777BFF7A124B
:1007E000791C7D017F011210D0E511640145106074
:1007F00003020A9F850F2A20B3177F0FFE12102CC9
:1008000020B3080511E5117002051030B3FD020890
:100810009E20B21CE4F510F5117F0FFE12102C2063
:10082000B2080509E5097002050830B2FD020A9F09
:1008300020B13212102830B1FDE50F450E700BE5E6
:1008400024640C7005F50E750F0CE50F450E700B4A
:10085000E52464187005F50E750F18E50F150F7077
:1008600002150E803920B03612102830B0FDE50F89
:10087000640B450E700CE524640C700674FFF50ED5
:10088000F50FE50F6417450E700CE524641870062B
:1008900074FFF50EF50F050FE50F7002050EAF2A78
:1008A000EF3395E0FEEF650F7003EE650E70030207
:1008B00007E9850F2AAE0EAF0F7C007D0A120E5697
:1008C000EF2430FB7D067F0212113EAE0EAF0F7C8F
:1008D000007D0A120E56ED2430FF1211677F3A1286
:1008E0001167AE0AAF0B7C007D0A120E56EF243062
:1008F000FF121167AE0AAF0B7C007D0A120E56ED97
:100900002430FF1211670207E9AE0EAF0F7C007DA5
:100910000A120E56EF2430FB7D067F0212113EAE06
:100920000EAF0F7C007D0A120E56ED2430FF12111F
:10093000677F3A1211677BFF7A12790D7D097F027A
:100940001210D0121177AE0EAF0F7C007D0A120E7E
:1009500056EF2430FB7D067F0212113EAE0EAF0F24
:100960007C007D0A120E56ED2430FF1211677F3A8B
:10097000121167AE0AAF0B7C007D0A120E56EF24EF
:1009800030FF121167AE0AAF0B7C007D0A120E56C3
:10099000ED2430FF1211671211777BFF7A12791C58
:1009A0007D017F011210D0E5116402451060030241
:1009B0000A9F850B2A20B3167F0FFE12102C20B33E
:1009C000080511E5117002051030B3FD805C20B2FE
:1009D0001CE4F510F5117F0FFE12102C20B2080553
:1009E00009E5097002050830B2FD020A9F20B11B1B
:1009F00012102830B1FDE50B450A7005F50A750B9C
:100A00003CE50B150B7002150A801F20B01C12105C
:100A10002830B0FDE50B643B450A700674FFF50A0B
:100A2000F50B050BE50B7002050AAF2AEF3395E0D5
:100A3000FEEF650B7003EE650A6054850B2AAE0E5F
:100A4000AF0F7C007D0A120E56EF2430FB7D067F2F
:100A50000212113EAE0EAF0F7C007D0A120E56ED53
:100A60002430FF1211677F3A121167AE0AAF0B7C78
:100A7000007D0A120E56EF2430FF121167AE0AAF46
:100A80000B7C007D0A120E56ED2430FF121167E533
:100A9000116402451070030209A77F01121090C370
:100AA000E5119403E51094005003020717D3E509FC
:100AB0009402E508940050030200CA20B33B1210D0
:100AC0002620B332E524640C700575241880037564
:100AD000240CC3E521940C74809480400674F425A2
:100AE00021F521E522FD7C0085242FA2009201AB97
:100AF00023AF21120EAB30B3FDE521B50F25E4B5D0
:100B00000E21E522B50B1CE4B50A18D2B77F807E12
:100B10009612117B750E00750F18750A00750B186B
:100B2000020019C2B702001985252E85262F8527B8
:100B300030852831AB23AD22AF218F2B8D2C8B2D0F
:100B4000E52B75F00A842430FB7D057F0112113EF0
:100B5000E52B75F00A84E5F02430FF1211677F3A27
:100B6000121167E52C75F00A842430FF121167E535
:100B70002C75F00A84E5F02430FF1211677F3A12D9
:100B80001167E52D75F00A842430FF121167E52DF9
:100B900075F00A84E5F02430FF1211677BFF7A11AB
:100BA00079F27D017F021210D0E52E75F003A424A6
:100BB0002AF582E43412F583E493FB740193FA740A
:100BC0000293F97D027F021210D07F20121167E597
:100BD0002F75F00A842430FF121167E52F75F00A93
:100BE00084E5F02430FF1211677F2F121167E53082
:100BF00075F00A842430FF121167E53075F00A841D
:100C0000E5F02430FF1211677BFF7A12790312108E
:100C1000B0E53175F00A842430FF121167E53175B3
:100C2000F00A84E5F02430FF0211678B2B8A2C89AF
:100C30002D1211B57FD01210EFE4FF1210EF121138
:100C4000B57FD11210EFD202120FFC8F39D20212EF
:100C50000FFC8F38C202120FFC8F371211CA5339A2
:100C60007FE539C4540F75F00AA4FFE539540F2FFE
:100C7000AB31AA32A933120E2253387FE538C4545F
:100C80000F75F00AA4FFE538540F2FAB2EAA2FA939
:100C900030120E22E53730E633AB34AA35A936746C
:100CA0000C120E22E53730E504D2018002C2015356
:100CB000371FE537C4540F75F00AA4FFE537540F0A
:100CC0002FAB2BAA2CA92D120E22803EAB34AA35B5
:100CD000A9367418120E2253373FE537C4540F75E6
:100CE000F00AA4FFE537540F2FAB2BAA2CA92D1225
:100CF0000E22AB2BAA2CA92D120DDCC3940C7480F0
:100D000094805004C2018002D201A201228B2B8A5E
:100D10002C892D1211B57FD01210EF7F031210EF26
:100D20001211B57FD11210EFD202120FFCAB2BAA19
:100D30002CA92DEF120E22D202120FFCAB2EAA2FDD
:100D4000A930EF120E22D202120FFCAB31AA32A947
:100D500033EF120E22C202120FFCAB34AA35A936B1
:100D6000EF120E221211CAAB2BAA2CA92D120DDCE8
:100D70005407120E22AB2EAA2FA930120DDC543FBD
:100D8000120E22AB2EAA2FA930120DDCFFC4540F75
:100D900075F00AA4FEEF540F2E120E22AB31AA32C8
:100DA000A933120DDC541F120E22AB31AA32A93323
:100DB000120DDCFFC4540F75F00AA4FEEF540F2E81
:100DC000120E22AB34AA35A936120DDCFFC4540F23
:100DD00075F00AA4FEEF540F2E020E22BB01068905
:100DE000828A83E0225002E722BBFE02E32289824C
:100DF0008A83E49322BB010CE58229F582E5833ADC
:100E0000F583E0225006E92582F8E622BBFE06E9DA
:100E10002582F8E222E58229F582E5833AF583E42A
:100E20009322BB010689828A83F0225002F722BBFB
:100E3000FE01F322F8BB010DE58229F582E5833A34
:100E4000F583E8F0225006E92582C8F622BBFE05AC
:100E5000E92582C8F222BC000BBE0029EF8DF08488
:100E6000FFADF022E4CCF875F008EF2FFFEE33FE73
:100E7000EC33FCEE9DEC984005FCEE9DFE0FD5F0AA
:100E8000E9E4CEFD22EDF8F5F0EE8420D21CFEADB3
:100E9000F075F008EF2FFFED33FD4007985006D5B1
:100EA000F0F222C398FD0FD5F0EA228F2B8C2C8D07
:100EB0002D8B2EE52E75F00A84C454F0FFE52E75B7
:100EC000F00A84E5F04FF52EAE2CAF2D7C007D0AA4
:100ED000120E56EFC4F8540FC868FBEEC454F04825
:100EE000FAAE2CAF2D7C007D0A120E56EC4AF52C82
:100EF000ED4BF52DE52B75F00A84C454F0FFE52B7E
:100F000075F00A84E5F04FF52BE52F640C7009436A
:100F10002B40300103432B201211B57FD01210EF6C
:100F2000E4FF1210EFAF2E1210EFAF2D1210EFAF43
:100F30002B1210EF0211CA8F2B8D2C8B2DE52C75E7
:100F4000F00A84C454F0FFE52C75F00A84E5F04FF4
:100F5000F52CE52D75F00A84C454F0FFE52D75F0ED
:100F60000A84E5F04FF52DE52E75F00A84C454F09F
:100F7000FFE52E75F00A84E5F04FF52E1211B57FCE
:100F8000D01210EF7F031210EFAF2B1210EFAF2C27
:100F90001210EFAF2D1210EFAF2E1210EF0211CA88
:100FA000C2A0C2A27F147E001210707F0312112D06
:100FB000D2A2C2A27F057E001210707F0312112DF3
:100FC000D2A2C2A27F641211AE7F0312112DD2A24F
:100FD000C2A27F017E001210707F0212112DD2A2D8
:100FE000C2A21F7E001210707F281210907F0C1278
:100FF00010907F011210907F06021090E4FFFEEE29
:10100000C39408748094805013D291D290EF25E05D
:10101000FF309103430701C2900E80E330020302C8
:1010200011BC1211C322C2A17F0F7E00E4FDFCC3DC
:10103000ED9FEC9E5015E4FBFA0BBB00010AEB643C
:101040007D4A70F50DBD00010C80E4228F2B12113A
:10105000B57FD01210EFAF2B1210EF1211B57FD168
:101060001210EFC202120FFC8F2C1211CAAF2C22E9
:10107000E4FDFCC3ED9FEC9E5015E4FBFA0BBB00B6
:10108000010AEB647B4A70F50DBD00010C80E4227F
:10109000AE07C2A0121126D2A2C2A2EF24FE6003A4
:1010A0000470077F027E000210707F251211AE22AD
:1010B0008B358A368937E4FDAB35AA36A9378D8260
:1010C000758300120DF5FF60061211670D80E9228D
:1010D0008B328A338934EF64017FC070027F80EDE8
:1010E000142FFF121090AB32AA33A9340210B0E4CF
:1010F000FEEEC3940874809480500FEF339291D227
:1011000090C290EF25E0FF0E80E70211958F2B8DA6
:101110002C1211B57FD01210EFAF2B1210EFAF2CA5
:101120001210EF0211CA121155D2A2C2A2EFA2E30D
:1011300092A7A2E292A6A2E192A51392A4228B32D8
:10114000EF64017FC070027F80ED142FFF121090BA
:10115000AF32021167EF3392A7EFA2E692A6A2E5A3
:1011600092A5A2E492A422AE07D2A0121126D2A286
:10117000C2A27F290211AE7F307E75EF1FAC0670D0
:10118000011E4C70F622E4FF12104CAD0753057F90
:10119000E4FF02110DD291D290A2919202C290A2CC
:1011A0000222787FE4F6D8FD758139020003AE078C
:1011B0001FEE70FA22D290C291C29022C291D290B8
:1011C000C29022D291D290C29022C291D290D2915A
:1011D00022D290D2912253554E004D4F4E0054557D
:1011E0004500574544005448550046524900534174
:1011F00054002020202020202020202020202020DB
:101200002020002F323000504D00414D005F5F0024
:101210005F5F5F005F5F5F5F0032300043414920E6
:101220004441542042414F205448554300FF11D6B9
:10123000FF11DAFF11DEFF11E2FF11E6FF11EAFFF5
:0212400011EEAD
:00000001FF
