:10000000021423021409D2B2D2AFD288D2A8121499
:10001000521213FA121206E4F50AF50BF50EF50F5B
:10002000F512F513F52AF52BF52CF510F511F50859
:10003000F5097589017533007534007535227536FB
:1000400000753700753823753900753A00753B2403
:100050007B007A007921120E91920075330075347D
:1000600000753526753600753700753827753900E7
:10007000753A00753B287B007A007925120F73E5ED
:100080002965236029852329E524640C70187BFFEA
:100090003000067A14798880047A14798B7D0E7F7B
:1000A0000112133480057F011212F4120D8EC2A1C9
:1000B000D3E50B9400E50A94005003020D26D2A16B
:1000C000E50A6003020CF1E50B24FE70030205A8AB
:1000D000147003020A7924026003020CF17BFF7A98
:1000E00014798E7D0B7F011213341213CBE5237527
:1000F000F00A842430FB7D0B7F011213A2E52375E7
:10010000F00A84E5F02430FF1213DB1213CB30B376
:1001100003020CF112128C30B3FD750E00750F0145
:10012000E50B6401450A600302059F20B3147F0FAD
:10013000FE12129020B308050FE50F7002050E3075
:10014000B3FDE50E6003020589E50F14700302029A
:100150004124FE70030202E8147003020398147035
:10016000030204401470030204E82404600302053F
:1001700089E50F6402450E6003020589E50B640101
:10018000450A600302058985212D20B3177F0FFEE4
:1001900012129020B308050FE50F7002050E30B360
:1001A000FD02022720B12412128C30B1FDE521702E
:1001B00009E524640C700375210CE5217009E52420
:1001C000641870037521181521805C20B028121264
:1001D0008C30B0FDE521640B7009E524640C7003DC
:1001E0007521FFE52164177009E524641870037513
:1001F00021FF052180317BFF7A14798E7D057F01F7
:100200001213341213CBE52175F00A842430FB7DE0
:10021000057F011213A2E52175F00A84E5F0243070
:10022000FF1213DB1213CBE52D6521600685212D0E
:10023000120D8EE50F6402450E7003020171020576
:1002400089E50F6401450E6003020589E50B640131
:10025000450A600302058985222D20B3167F0FFE13
:1002600012129020B308050FE50F7002050E30B38F
:10027000FD805B20B11112128C30B1FDE5227003BC
:1002800075223C1522804720B01312128C30B0FD2D
:10029000E522643B70037522FF052280317BFF7AE3
:1002A00014798E7D087F011213341213CBE5227569
:1002B000F00A842430FB7D087F011213A2E5227529
:1002C000F00A84E5F02430FF1213DB1213CBE52D86
:1002D0006522600685222D120D8EE50F6401450E04
:1002E0007003020241020589E50F6403450E6003B5
:1002F000020589E50B6401450A600302058985252D
:100300002D20B3167F0FFE12129020B308050FE5C3
:100310000F7002050E30B3FD806420B11312128CF1
:1003200030B1FDE525640170037525081525804E63
:1003300020B01212128C30B0FDE52564077002F572
:1003400025052580397BFF7A1479917D027F021281
:1003500013341213CBE52575F003A424BBF582E416
:100360003414F583E493FB740193FA740293F97DDA
:10037000027F021213347F201213DB1213CBE52D00
:100380006525600685252D120D8EE50F6403450E4B
:1003900070030202E8020589E50F6404450E60035C
:1003A000020589E50B6401450A600302058985267B
:1003B0002D20B3167F0FFE12129020B308050FE513
:1003C0000F7002050E30B3FD805C20B11312128C49
:1003D00030B1FDE5266401700375262015268046A0
:1003E00020B01212128C30B0FDE526641F7002F5A9
:1003F00026052680317BFF7A14798E7D067F0212D6
:1004000013341213CBE52675F00A842430FB7D06E5
:100410007F021213A2E52675F00A84E5F02430FF6E
:100420001213DB1213CBE52D6526600685262D12EF
:100430000D8EE50F6404450E7003020398020589D2
:10044000E50F6405450E6003020589E50B6401456F
:100450000A600302058985272D20B3167F0FFE123F
:10046000129020B308050FE50F7002050E30B3FDA2
:10047000805C20B11312128C30B1FDE5276401704D
:100480000375270D1527804620B01212128C30B04C
:10049000FDE527640C7002F527052780317BFF7A84
:1004A00014798E7D097F021213341213CBE5277560
:1004B000F00A842430FB7D097F021213A2E5277520
:1004C000F00A84E5F02430FF1213DB1213CBE52D84
:1004D0006527600685272D120D8EE50F6405450EF4
:1004E0007003020440020589E50F6406450E6003AF
:1004F000020589E50B6401450A6003020589852828
:100500002D20B3167F0FFE12129020B308050FE5C1
:100510000F7002050E30B3FD805820B10A12128C04
:1005200030B1FD1528804B20B00A12128C30B0FD7E
:100530000528803E7BFF7A1479957D0C7F0212138B
:10054000341213CB7BFF7A14799A7D0C7F0212133D
:1005500034E52875F00A842430FB7D0E7F021213E7
:10056000A2E52875F00A84E5F02430FF1213DB12AF
:1005700013CBE52D6528600685282D120D8EE50F1D
:100580006406450E70030204E8C3E50F9407E50E08
:1005900094005003020120050BE50B7002050AE5EB
:1005A0000B6401450A020CF17F011212F47BFF7A01
:1005B00014799D7D017F0112133412128C30B30324
:1005C000020CF112129075120075130130B3FDE5A3
:1005D0000B6402450A6003020A7020B3147F0FFE09
:1005E00012129020B3080513E5137002051230B300
:1005F000FDE5126003020A5AE51324FE70030208A7
:100600003E046003020A5A7BFF7A14798E7D067FCE
:10061000021213347F3A1213DBAE08AF097C007D5F
:100620000A1210BCEF2430FF1213DBAE08AF097CB6
:10063000007D0A1210BCED2430FF1213DB1213EB05
:10064000AE10AF117C007D0A1210BCEF2430FB7D90
:10065000067F021213A2AE10AF117C007D0A1210A9
:10066000BCED2430FF1213DB7F3A1213DBAE08AF70
:10067000097C007D0A1210BCEF2430FF1213DBAEA0
:1006800008AF097C007D0A1210BCED2430FF121364
:10069000DB1213EB7BFF7A14799D7D017F0112132E
:1006A00034E513640145126003020A5AE50B640243
:1006B000450A6003020A5A85112D20B3177F0FFEE9
:1006C00012129020B3080513E5137002051230B31F
:1006D000FD0207D320B13312128C30B1FDE5114574
:1006E00010700BE524640C7005F51075110CE51104
:1006F0004510700BE52464187005F510751118E5A8
:10070000111511700215100207D320B03912128C86
:1007100030B0FDE511640B4510700CE524640C70DD
:100720000674FFF510F511E51164174510700CE51E
:10073000246418700674FFF510F5110511E51170A9
:100740000205100207D37BFF7A14798E7D067F02A3
:100750001213347F3A1213DBAE08AF097C007D0A16
:100760001210BCEF2430FF1213DBAE08AF097C007F
:100770007D0A1210BCED2430FF1213DB1213CBAE36
:1007800010AF117C007D0A1210BCEF2430FB7D06F7
:100790007F021213A2AE10AF117C007D0A1210BCB2
:1007A000ED2430FF1213DB7F3A1213DBAE08AF09E2
:1007B0007C007D0A1210BCEF2430FF1213DBAE0860
:1007C000AF097C007D0A1210BCED2430FF1213DB50
:1007D0001213CBAF2DEF3395E0FEEF65117003EEF2
:1007E000651070030206A185112DAE10AF117C00BB
:1007F0007D0A1210BCEF2430FB7D067F021213A28B
:10080000AE10AF117C007D0A1210BCED2430FF1237
:1008100013DB7F3A1213DBAE08AF097C007D0A12AE
:1008200010BCEF2430FF1213DBAE08AF097C007D53
:100830000A1210BCED2430FF1213DB0206A1AE1029
:10084000AF117C007D0A1210BCEF2430FB7D067FC7
:10085000021213A2AE10AF117C007D0A1210BCED83
:100860002430FF1213DB7F3A1213DB7BFF7A1479FB
:100870008E7D097F021213341213EBAE10AF117C80
:10088000007D0A1210BCEF2430FB7D067F0212139C
:10089000A2AE10AF117C007D0A1210BCED2430FF17
:1008A0001213DB7F3A1213DBAE08AF097C007D0A1E
:1008B0001210BCEF2430FF1213DBAE08AF097C002E
:1008C0007D0A1210BCED2430FF1213DB1213EB7BF8
:1008D000FF7A14799D7D017F01121334E5136402C0
:1008E00045126003020A5AE50B6402450A600302DE
:1008F0000A5A85092D20B3177F0FFE12129020B3DC
:10090000080513E5137002051230B3FD0209E52056
:10091000B11C12128C30B1FDE50945087005F508CF
:1009200075093CE5091509700215080209E520B0B2
:100930001F12128C30B0FDE509643B450870067447
:10094000FFF508F5090509E509700205080209E542
:10095000AE10AF117C007D0A1210BCEF2430FB7D7D
:10096000067F021213A2AE10AF117C007D0A121096
:10097000BCED2430FF1213DB7F3A1213DB7BFF7ACE
:1009800014798E7D097F021213341213CBAE10AF8F
:10099000117C007D0A1210BCEF2430FB7D067F0223
:1009A0001213A2AE10AF117C007D0A1210BCED2410
:1009B00030FF1213DB7F3A1213DBAE08AF097C0065
:1009C0007D0A1210BCEF2430FB7D097F021213A2B6
:1009D000AE08AF097C007D0A1210BCED2430FF1276
:1009E00013DB1213CBAF2DEF3395E0FEEF650970EB
:1009F00003EE6508605485092DAE10AF117C007DB3
:100A00000A1210BCEF2430FB7D067F021213A2AE47
:100A100010AF117C007D0A1210BCED2430FF1213C0
:100A2000DB7F3A1213DBAE08AF097C007D0A12109F
:100A3000BCEF2430FF1213DBAE08AF097C007D0A47
:100A40001210BCED2430FF1213DBE51364024512D3
:100A500070030208DC7F011212F4C3E5139403E56E
:100A600012940050030205CF050BE50B7002050A36
:100A7000E50B6402450A020CF1750C00750D017F4F
:100A8000011212F47BFF7A1479AE7D027F011213FA
:100A900034E52A75F00A842430FB7D057F021213A9
:100AA000A2E52A75F00A84E5F02430FF1213DB7FFB
:100AB0003A1213DBE52B75F00A842430FF1213DBA6
:100AC000E52B75F00A84E5F02430FF1213DB7F3A42
:100AD0001213DBE52C75F00A842430FF1213DBE5DA
:100AE0002C75F00A84E5F02430FF1213DB12128C0F
:100AF000E50B6403450A6003020CF1852A2D30B32F
:100B000003020C7F7F0FFE12129020B308050DE543
:100B10000D7002050C30B3FDE50D30E003020C7FD3
:100B2000E50B6403450A6003020C7FF52EF52F05E3
:100B30002CF514F515E4F52EF52F1213CB052FE542
:100B40002F7002052EC39419E52E6480948040EA2C
:100B5000E52A75F00A842430FB7D057F021213A27A
:100B6000E52A75F00A84E5F02430FF1213DB7F3AA2
:100B70001213DBE52B75F00A842430FF1213DBE53A
:100B80002B75F00A84E5F02430FF1213DB7F3A1254
:100B900013DBE52C75F00A842430FF1213DBE52CFF
:100BA00075F00A84E5F02430FF1213DB0515E51516
:100BB00070020514C39423E51494005003020B350E
:100BC00020B31012128C050DE50D7002050C30B328
:100BD000FD807420B17112128C30B1FDE4F52AF55C
:100BE0002BF52CE52A75F00A842430FB7D057F0265
:100BF0001213A2E52A75F00A84E5F02430FF1213DF
:100C0000DB7F3A1213DBE52B75F00A842430FF12E8
:100C100013DBE52B75F00A84E5F02430FF1213DBBB
:100C20007F3A1213DBE52C75F00A842430FF12138F
:100C3000DBE52C75F00A84E5F02430FF1213DB05A8
:100C40000DE50D7002050CAF2C7E00EF643B7002C9
:100C5000052BAD2B7C00ED643B7002052AD3EF948D
:100C60003BEE648094804003E4F52CD3ED943BECA0
:100C7000648094805003020B18E4F52B020B1830AB
:100C8000B103020AF012128C30B1FDE4F52AF52B03
:100C9000F52CE52A75F00A842430FB7D057F0212CD
:100CA00013A2E52A75F00A84E5F02430FF1213DB65
:100CB0007F3A1213DBE52B75F00A842430FF121300
:100CC000DBE52B75F00A84E5F02430FF1213DB7F9F
:100CD0003A1213DBE52C75F00A842430FF1213DB83
:100CE000E52C75F00A84E5F02430FF1213DB020ACC
:100CF000F0C3E50B9404E50A940050030200B0E54C
:100D000022FD7C00852434A2009201AB23AF211286
:100D10001111852833AB27AD26AF2512119D121373
:100D2000FAE4F50AF50B20B349C2A112128C20B3E4
:100D30003EE524640C700E300006740C2521F5216C
:100D40007524188014C3E521940C748094804006A7
:100D500074F42521F52175240CE522FD7C00852401
:100D600034A2009201AB23AF211211111213FA30F9
:100D7000B3FDE521B51112E4B5100EE522B5090960
:100D8000E4B50805D2B7020035C2B70200358525A3
:100D900033852634852735852836AB23AD22AF2110
:100DA0008F308D318B32E53075F00A842430FB7D35
:100DB000057F011213A2E53075F00A84E5F02430B6
:100DC000FF1213DB7F3A1213DBE53175F00A84243E
:100DD00030FF1213DBE53175F00A84E5F02430FFB3
:100DE0001213DB7F3A1213DBE53275F00A842430EC
:100DF000FF1213DBE53275F00A84E5F02430FF12B0
:100E000013DB7BFF7A1479737D017F02121334E5C3
:100E10003375F003A424BBF582E43414F583E49322
:100E2000FB740193FA740293F97D027F021213346A
:100E30007F201213DBE53475F00A842430FF12138F
:100E4000DBE53475F00A84E5F02430FF1213DB7F14
:100E50002F1213DBE53575F00A842430FF1213DB03
:100E6000E53575F00A84E5F02430FF1213DB7BFFD3
:100E70007A147984121314E53675F00A842430FF4D
:100E80001213DBE53675F00A84E5F02430FF021317
:100E9000DB8B308A3189321214367FD0121353E43F
:100EA000FF1213531214367FD1121353D2021212AF
:100EB000628F3ED2021212628F3DC2021212628F04
:100EC0003C12144B533E7FE53EC4540F75F00AA408
:100ED000FFE53E540F2FAB36AA37A93812108853BE
:100EE0003D7FE53DC4540F75F00AA4FFE53D540F66
:100EF0002FAB33AA34A935121088E53C30E633AB6A
:100F000039AA3AA93B740C121088E53C30E504D2AA
:100F1000018002C201533C1FE53CC4540F75F00A26
:100F2000A4FFE53C540F2FAB30AA31A93212108830
:100F3000803EAB39AA3AA93B7418121088533C3F43
:100F4000E53CC4540F75F00AA4FFE53C540F2FABE9
:100F500030AA31A932121088AB30AA31A93212104E
:100F600042C3940C748094805004C2018002D20168
:100F7000A201228B308A3189321214367FD01213AB
:100F8000537F031213531214367FD1121353D2021C
:100F9000121262AB30AA31A932EF121088D20212BB
:100FA0001262AB33AA34A935EF121088D2021212A2
:100FB00062AB36AA37A938EF121088C20212126249
:100FC000AB39AA3AA93BEF12108812144BAB30AAE6
:100FD00031A9321210425407121088AB33AA34A937
:100FE00035121042543F121088AB33AA34A935127F
:100FF0001042FFC4540F75F00AA4FEEF540F2E12D6
:101000001088AB36AA37A938121042541F12108824
:10101000AB36AA37A938121042FFC4540F75F00A34
:10102000A4FEEF540F2E121088AB39AA3AA93B1236
:101030001042FFC4540F75F00AA4FEEF540F2E02A5
:101040001088BB010689828A83E0225002E722BB16
:10105000FE02E32289828A83E49322BB010CE582AB
:1010600029F582E5833AF583E0225006E92582F8E6
:10107000E622BBFE06E92582F8E222E58229F58216
:10108000E5833AF583E49322BB010689828A83F0E3
:10109000225002F722BBFE01F322F8BB010DE582CC
:1010A00029F582E5833AF583E8F0225006E92582A6
:1010B000C8F622BBFE05E92582C8F222BC000BBEA1
:1010C0000029EF8DF084FFADF022E4CCF875F00834
:1010D000EF2FFFEE33FEEC33FCEE9DEC984005FC69
:1010E000EE9DFE0FD5F0E9E4CEFD22EDF8F5F0EE31
:1010F0008420D21CFEADF075F008EF2FFFED33FD1C
:101100004007985006D5F0F222C398FD0FD5F0EABB
:10111000228F308C318D328B33E53375F00A84C4E5
:1011200054F0FFE53375F00A84E5F04FF533AE3146
:10113000AF327C007D0A1210BCEFC4F8540FC868AF
:10114000FBEEC454F048FAAE31AF327C007D0A1297
:1011500010BCEC4AF531ED4BF532E53075F00A8400
:10116000C454F0FFE53075F00A84E5F04FF530E542
:1011700034640C70094330403001034330201214B2
:10118000367FD0121353E4FF121353AF33121353AD
:10119000AF32121353AF3012135302144B8F308DF2
:1011A000318B32E53175F00A84C454F0FFE53175B6
:1011B000F00A84E5F04FF531E53275F00A84C45445
:1011C000F0FFE53275F00A84E5F04FF532E533754E
:1011D000F00A84C454F0FFE53375F00A84E5F04F5B
:1011E000F5331214367FD01213537F03121353AF0B
:1011F00030121353AF31121353AF32121353AF33B4
:1012000012135302144BC2A0C2A27F147E0012120A
:10121000D47F03121391D2A2C2A27F057E001212C4
:10122000D47F03121391D2A2C2A27F6412142F7F23
:1012300003121391D2A2C2A27F017E001212D47FA8
:1012400002121391D2A2C2A21F7E001212D47F28D2
:101250001212F47F0C1212F47F011212F47F0602B4
:1012600012F4E4FFFEEEC39408748094805013D20D
:1012700091D290EF25E0FF309103430701C2900E19
:1012800080E330020302143D121444227F0F7E00DB
:10129000E4FDFCC3ED9FEC9E5015E4FBFA0BBB0094
:1012A000010AEB647D4A70F50DBD00010C80E4225B
:1012B0008F301214367FD0121353AF3012135312E3
:1012C00014367FD1121353C2021212628F311214DC
:1012D0004BAF3122E4FDFCC3ED9FEC9E5015E4FBC7
:1012E000FA0BBB00010AEB647B4A70F50DBD0001EF
:1012F0000C80E422AE07C2A012138AD2A2C2A2EFCF
:1013000024FE60030470077F027E000212D47F2552
:1013100012142F228B3A8A3B893CE4FDAB3AAA3B5C
:10132000A93C8D8275830012105BFF60061213DBEF
:101330000D80E9228B378A388939EF64017FC070CC
:10134000027F80ED142FFF1212F4AB37AA38A939AF
:10135000021314E4FEEEC3940874809480500FEFDF
:10136000339291D290C290EF25E0FF0E80E70214F5
:10137000168F308D311214367FD0121353AF3012C6
:101380001353AF3112135302144B1213B9D2A2C22A
:10139000A2EFA2E392A7A2E292A6A2E192A51392E3
:1013A000A4228B37EF64017FC070027F80ED142F81
:1013B000FF1212F4AF370213DBEF3392A7EFA2E66E
:1013C00092A6A2E592A5A2E492A422758CFC758A4D
:1013D00074D28C308DFDC28CC28D22AE07D2A01289
:1013E000138AD2A2C2A27F2902142F7F307E75EF0A
:1013F0001FAC0670011E4C70F622E4FF1212B0AD55
:101400000753057FE4FF021371C0E0050BE50B7085
:1014100002050AD0E032D291D290A2919202C290FB
:10142000A20222787FE4F6D8FD75813E020006AE66
:10143000071FEE70FA22D290C291C29022C291D2BE
:1014400090C29022D291D290C29022C291D290D2D8
:101450009122D290D2912253554E004D4F4E0054BE
:1014600055450057454400544855004652490053DD
:101470004154002020202020202020202020202037
:10148000202020002F323000504D00414D00202000
:10149000002020200020202020003230004341493D
:1014A000204441542042414F205448554300444F6A
:1014B0004E4720484F2042414D2047494F00FF14DE
:1014C00057FF145BFF145FFF1463FF1467FF146B77
:0314D000FF146F97
:00000001FF
