:1000000002143702141DD2B2D2AFD288D2A8121471
:100010006612140E12121AE4F50AF50BF50EF50F1E
:10002000F512F513F52AF52BF52C758901753300BA
:1000300075340075352275360075370075382375AF
:100040003900753A00753B247B007A007921120E45
:10005000A592007533007534007535267536007528
:100060003700753827753900753A00753B287B00D5
:100070007A007925120F87E52965236029852329D0
:10008000E524640C70187BFF3000067A14799C809C
:10009000047A14799F7D0E7F0112134880057F0139
:1000A000121308120DA2C2A1D3E50B9400E50A9425
:1000B000005003020D27D2A1E50A6003020CF2E50D
:1000C0000B24FE70030205A0147003020A7A2402B6
:1000D0006003020CF27BFF7A1479A27D0B7F011280
:1000E00013481213DFE52375F00A842430FB7D0BDF
:1000F0007F011213B6E52375F00A84E5F02430FF82
:100100001213EF1213DF30B303020CF21212A030FD
:10011000B3FD750E00750F01E50B6401450A600320
:1001200002059720B3147F0FFE1212A420B3080516
:100130000FE50F7002050E30B3FDE50E60030205FA
:1001400081E50F14700302023924FE70030202E0FD
:100150001470030203901470030204381470030235
:1001600004E024046003020581E50F6402450E608B
:1001700003020581E50B6401450A600302058185E0
:10018000212D20B3177F0FFE1212A420B308050FF4
:10019000E50F7002050E30B3FD02021F20B12412DC
:1001A00012A030B1FDE5217009E524640C700375DF
:1001B000210CE5217009E5246418700375211815D8
:1001C00021805C20B0281212A030B0FDE521640B24
:1001D0007009E524640C70037521FFE52164177034
:1001E00009E524641870037521FF052180317BFF28
:1001F0007A1479A27D057F011213481213DFE521DD
:1002000075F00A842430FB7D057F011213B6E521C9
:1002100075F00A84E5F02430FF1213EF1213DFE5C6
:100220002D6521600685212D120DA2E50F64024582
:100230000E7003020169020581E50F6401450E603D
:1002400003020581E50B6401450A6003020581850F
:10025000222D20B3167F0FFE1212A420B308050F23
:10026000E50F7002050E30B3FD805B20B111121254
:10027000A030B1FDE522700375223C152280472095
:10028000B0131212A030B0FDE522643B700375225A
:10029000FF052280317BFF7A1479A27D087F01124D
:1002A00013481213DFE52275F00A842430FB7D0821
:1002B0007F011213B6E52275F00A84E5F02430FFC1
:1002C0001213EF1213DFE52D6522600685222D1231
:1002D0000DA2E50F6401450E70030202390205818B
:1002E000E50F6403450E6003020581E50B640145DB
:1002F0000A600302058185252D20B3167F0FFE12AB
:1003000012A420B308050FE50F7002050E30B3FDEF
:10031000806420B1131212A030B1FDE52564017094
:10032000037525081525804E20B0121212A030B09A
:10033000FDE52564077002F525052580397BFF7AE8
:100340001479A57D027F021213481213DFE525758B
:10035000F003A424CFF582E43414F583E493FB7412
:100360000193FA740293F97D027F021213487F20F1
:100370001213EF1213DFE52D6525600685252D127A
:100380000DA2E50F6403450E70030202E002058131
:10039000E50F6404450E6003020581E50B64014529
:1003A0000A600302058185262D20B3167F0FFE12F9
:1003B00012A420B308050FE50F7002050E30B3FD3F
:1003C000805C20B1131212A030B1FDE526640170EB
:1003D000037526201526804620B0121212A030B0D8
:1003E000FDE526641F7002F526052680317BFF7A25
:1003F0001479A27D067F021213481213DFE52675D9
:10040000F00A842430FB7D067F021213B6E52675C0
:10041000F00A84E5F02430FF1213EF1213DFE52D0C
:100420006526600685262D120DA2E50F6404450E93
:100430007003020390020581E50F6405450E600319
:10044000020581E50B6401450A60030205818527E9
:100450002D20B3167F0FFE1212A420B308050FE55E
:100460000F7002050E30B3FD805C20B1131212A094
:1004700030B1FDE5276401700375270D152780460F
:1004800020B0121212A030B0FDE527640C7002F506
:1004900027052780317BFF7A1479A27D097F02121C
:1004A00013481213DFE52775F00A842430FB7D0919
:1004B0007F021213B6E52775F00A84E5F02430FFB9
:1004C0001213EF1213DFE52D6527600685272D1225
:1004D0000DA2E50F6405450E700302043802058184
:1004E000E50F6406450E6003020581E50B640145D6
:1004F0000A600302058185282D20B3167F0FFE12A6
:1005000012A420B308050FE50F7002050E30B3FDED
:10051000805820B10A1212A030B1FD1528804B205E
:10052000B00A1212A030B0FD0528803E7BFF7A147D
:1005300079A97D0C7F021213481213DF7BFF7A1416
:1005400079AE7D0C7F02121348E52875F00A8424E9
:1005500030FB7D0E7F021213B6E52875F00A84E5A4
:10056000F02430FF1213EF1213DFE52D652860062B
:1005700085282D120DA2E50F6406450E70030204B6
:10058000E0C3E50F9407E50E94005003020118053F
:100590000BE50B7002050AE50B6401450A020CF23B
:1005A0007F011213087BFF7A1479B17D017F01125C
:1005B00013481212A030B303020CF21212A47512E7
:1005C0000075130130B3FDE4F510F511F508F509D8
:1005D000E50B6402450A6003020A7120B3147F0F21
:1005E000FE1212A420B3080513E5137002051230A1
:1005F000B3FDE5126003020A5BE51324FE700302FB
:10060000083F046003020A5B7BFF7A1479A27D062F
:100610007F021213487F3A1213EFAE08AF097C0035
:100620007D0A1210D0EF2430FF1213EFAE08AF098D
:100630007C007D0A1210D0ED2430FF1213EF12134C
:10064000FFAE10AF117C007D0A1210D0EF2430FBFA
:100650007D067F021213B6AE10AF117C007D0A1228
:1006600010D0ED2430FF1213EF7F3A1213EFAE08D3
:10067000AF097C007D0A1210D0EF2430FF1213EF77
:10068000AE08AF097C007D0A1210D0ED2430FF12B5
:1006900013EF1213FF7BFF7A1479B17D017F0112F2
:1006A0001348E513640145126003020A5BE50B641D
:1006B00002450A6003020A5B85112D20B3177F0FE4
:1006C000FE1212A420B3080513E5137002051230C0
:1006D000B3FD0207D420B1331212A030B1FDE511F1
:1006E0004510700BE524640C7005F51075110CE5D0
:1006F000114510700BE52464187005F5107511187C
:10070000E5111511700215100207D420B03912122C
:10071000A030B0FDE511640B4510700CE524640CAD
:10072000700674FFF510F511E51164174510700C93
:10073000E5246418700674FFF510F5110511E51134
:10074000700205100207D47BFF7A1479A27D067F20
:10075000021213487F3A1213EFAE08AF097C007DF6
:100760000A1210D0EF2430FF1213EFAE08AF097C4D
:10077000007D0A1210D0ED2430FF1213EF1213DFA8
:10078000AE10AF117C007D0A1210D0EF2430FB7D3B
:10079000067F021213B6AE10AF117C007D0A121054
:1007A000D0ED2430FF1213EF7F3A1213EFAE08AFF3
:1007B000097C007D0A1210D0EF2430FF1213EFAE37
:1007C00008AF097C007D0A1210D0ED2430FF12130F
:1007D000EF1213DFAF2DEF3395E0FEEF65117003DD
:1007E000EE651070030206A285112DAE10AF117CCC
:1007F000007D0A1210D0EF2430FB7D067F02121319
:10080000B6AE10AF117C007D0A1210D0ED2430FF7F
:100810001213EF7F3A1213EFAE08AF097C007D0A86
:100820001210D0EF2430FF1213EFAE08AF097C0096
:100830007D0A1210D0ED2430FF1213EF0206A2AE93
:1008400010AF117C007D0A1210D0EF2430FB7D0622
:100850007F021213B6AE10AF117C007D0A1210D0C9
:10086000ED2430FF1213EF7F3A1213EF7BFF7A145F
:1008700079A27D097F021213481213FFAE10AF1147
:100880007C007D0A1210D0EF2430FB7D067F02121F
:1008900013B6AE10AF117C007D0A1210D0ED2430DB
:1008A000FF1213EF7F3A1213EFAE08AF097C007D01
:1008B0000A1210D0EF2430FF1213EFAE08AF097CFC
:1008C000007D0A1210D0ED2430FF1213EF1213FF37
:1008D0007BFF7A1479B17D017F01121348E513641F
:1008E0000245126003020A5BE50B6402450A6003DD
:1008F000020A5B85092D20B3177F0FFE1212A42078
:10090000B3080513E5137002051230B3FD0209E6C2
:1009100020B11C1212A030B1FDE50945087005F5A3
:100920000875093CE5091509700215080209E62059
:10093000B01F1212A030B0FDE509643B45087006F7
:1009400074FFF508F5090509E509700205080209B3
:10095000E6AE10AF117C007D0A1210D0EF2430FB00
:100960007D067F021213B6AE10AF117C007D0A1215
:1009700010D0ED2430FF1213EF7F3A1213EF7BFFFC
:100980007A1479A27D097F021213481213DFAE1088
:10099000AF117C007D0A1210D0EF2430FB7D067F62
:1009A000021213B6AE10AF117C007D0A1210D0ED0A
:1009B0002430FF1213EF7F3A1213EFAE08AF097C19
:1009C000007D0A1210D0EF2430FB7D097F02121344
:1009D000B6AE08AF097C007D0A1210D0ED2430FFBE
:1009E0001213EF1213DFAF2DEF3395E0FEEF650921
:1009F0007003EE6508605485092DAE10AF117C00C0
:100A00007D0A1210D0EF2430FB7D067F021213B650
:100A1000AE10AF117C007D0A1210D0ED2430FF1211
:100A200013EF7F3A1213EFAE08AF097C007D0A1274
:100A300010D0EF2430FF1213EFAE08AF097C007D19
:100A40000A1210D0ED2430FF1213EFE513640245B3
:100A50001270030208DD7F01121308C3E51394032B
:100A6000E512940050030205D0050BE50B7002055A
:100A70000AE50B6402450A020CF2750C00750D01C3
:100A80007F011213087BFF7A1479C27D027F011265
:100A90001348E52A75F00A842430FB7D057F021295
:100AA00013B6E52A75F00A84E5F02430FF1213EF3F
:100AB0007F3A1213EFE52B75F00A842430FF1213EE
:100AC000EFE52B75F00A84E5F02430FF1213EF7F79
:100AD0003A1213EFE52C75F00A842430FF1213EF5D
:100AE000E52C75F00A84E5F02430FF1213EF1212A2
:100AF000A0E50B6403450A6003020CF2852A2D3041
:100B0000B303020C807F0FFE1212A420B308050D60
:100B1000E50D7002050C30B3FDE50D30E003020C6D
:100B200080E50B6403450A6003020C80F52EF52F67
:100B3000052CF514F515E4F52EF52F1213DF052F0E
:100B4000E52F7002052EC39419E52E648094804031
:100B5000EAE52A75F00A842430FB7D057F02121332
:100B6000B6E52A75F00A84E5F02430FF1213EF7F12
:100B70003A1213EFE52B75F00A842430FF1213EFBD
:100B8000E52B75F00A84E5F02430FF1213EF7F3A6D
:100B90001213EFE52C75F00A842430FF1213EFE5F1
:100BA0002C75F00A84E5F02430FF1213EF0515E5EB
:100BB0001570020514C39423E51494005003020B2E
:100BC0003620B3101212A0050DE50D7002050C3091
:100BD000B3FD807420B1711212A030B1FDE4F52A8A
:100BE000F52BF52CE52A75F00A842430FB7D057F72
:100BF000021213B6E52A75F00A84E5F02430FF12DC
:100C000013EF7F3A1213EFE52B75F00A842430FFBF
:100C10001213EFE52B75F00A84E5F02430FF121370
:100C2000EF7F3A1213EFE52C75F00A842430FF129F
:100C300013EFE52C75F00A84E5F02430FF1213EF72
:100C4000050DE50D7002050CAF2C7E00EF643B70C6
:100C500002052BAD2B7C00ED643B7002052AD3EF1F
:100C6000943BEE648094804003E4F52CD3ED943BF8
:100C7000EC648094805003020B19E4F52B020B19ED
:100C800030B103020AF11212A030B1FDE4F52AF5E9
:100C90002BF52CE52A75F00A842430FB7D057F02B4
:100CA0001213B6E52A75F00A84E5F02430FF12131A
:100CB000EF7F3A1213EFE52B75F00A842430FF1210
:100CC00013EFE52B75F00A84E5F02430FF1213EFE3
:100CD0007F3A1213EFE52C75F00A842430FF1213CB
:100CE000EFE52C75F00A84E5F02430FF1213EF02D3
:100CF0000AF1C3E50B9404E50A940050030200A82E
:100D0000E522FD7C00852434A2009201AB23AF21B3
:100D1000121125852833AB27AD26AF251211B1124C
:100D2000140EE4F50AF50B20B349C2A11212A0205B
:100D3000B33EE524640C700E300006740C2521F5DA
:100D4000217524188014C3E521940C74809480408C
:100D50000674F42521F52175240CE522FD7C00851F
:100D60002434A2009201AB23AF2112112512140EDC
:100D700030B3FDE521B51125E4B51021E522B50913
:100D80001CE4B50818D2B77F807E96121403751044
:100D90000075111875080075091802002DC2B702F8
:100DA000002D852533852634852735852836AB23C8
:100DB000AD22AF218F308D318B32E53075F00A8452
:100DC0002430FB7D057F011213B6E53075F00A84EF
:100DD000E5F02430FF1213EF7F3A1213EFE531757F
:100DE000F00A842430FF1213EFE53175F00A84E530
:100DF000F02430FF1213EF7F3A1213EFE53275F053
:100E00000A842430FF1213EFE53275F00A84E5F00E
:100E10002430FF1213EF7BFF7A1479877D017F0264
:100E2000121348E53375F003A424CFF582E434149B
:100E3000F583E493FB740193FA740293F97D027FC6
:100E4000021213487F201213EFE53475F00A842450
:100E500030FF1213EFE53475F00A84E5F02430FF1B
:100E60001213EF7F2F1213EFE53575F00A8424304B
:100E7000FF1213EFE53575F00A84E5F02430FF1218
:100E800013EF7BFF7A147998121328E53675F00A70
:100E9000842430FF1213EFE53675F00A84E5F02460
:100EA00030FF0213EF8B308A31893212144A7FD01F
:100EB000121367E4FF12136712144A7FD1121367EB
:100EC000D2021212768F3ED2021212768F3DC202E9
:100ED0001212768F3C12145F533E7FE53EC4540FCE
:100EE00075F00AA4FFE53E540F2FAB36AA37A93898
:100EF00012109C533D7FE53DC4540F75F00AA4FFCA
:100F0000E53D540F2FAB33AA34A93512109CE53CB4
:100F100030E633AB39AA3AA93B740C12109CE53C7D
:100F200030E504D2018002C201533C1FE53CC454A9
:100F30000F75F00AA4FFE53C540F2FAB30AA31A97E
:100F40003212109C803EAB39AA3AA93B7418121099
:100F50009C533C3FE53CC4540F75F00AA4FFE53CAC
:100F6000540F2FAB30AA31A93212109CAB30AA31EA
:100F7000A932121056C3940C748094805004C2019C
:100F80008002D201A201228B308A31893212144AA6
:100F90007FD01213677F0312136712144A7FD11296
:100FA0001367D202121276AB30AA31A932EF1210B7
:100FB0009CD202121276AB33AA34A935EF12109CE0
:100FC000D202121276AB36AA37A938EF12109CC2A1
:100FD00002121276AB39AA3AA93BEF12109C1214F6
:100FE0005FAB30AA31A932121056540712109CABD5
:100FF00033AA34A935121056543F12109CAB33AAB1
:1010000034A935121056FFC4540F75F00AA4FEEF30
:10101000540F2E12109CAB36AA37A9381210565412
:101020001F12109CAB36AA37A938121056FFC454B1
:101030000F75F00AA4FEEF540F2E12109CAB39AAC4
:101040003AA93B121056FFC4540F75F00AA4FEEFE4
:10105000540F2E02109CBB010689828A83E0225025
:1010600002E722BBFE02E32289828A83E49322BB49
:10107000010CE58229F582E5833AF583E0225006EA
:10108000E92582F8E622BBFE06E92582F8E222E5A0
:101090008229F582E5833AF583E49322BB01068930
:1010A000828A83F0225002F722BBFE01F322F8BBB2
:1010B000010DE58229F582E5833AF583E8F02250B7
:1010C00006E92582C8F622BBFE05E92582C8F22280
:1010D000BC000BBE0029EF8DF084FFADF022E4CC04
:1010E000F875F008EF2FFFEE33FEEC33FCEE9DECCD
:1010F000984005FCEE9DFE0FD5F0E9E4CEFD22ED13
:10110000F8F5F0EE8420D21CFEADF075F008EF2F5C
:10111000FFED33FD4007985006D5F0F222C398FD4D
:101120000FD5F0EA228F308C318D328B33E5337559
:10113000F00A84C454F0FFE53375F00A84E5F04FFB
:10114000F533AE31AF327C007D0A1210D0EFC4F817
:10115000540FC868FBEEC454F048FAAE31AF327C8D
:10116000007D0A1210D0EC4AF531ED4BF532E53036
:1011700075F00A84C454F0FFE53075F00A84E5F098
:101180004FF530E534640C700943304030010343BF
:10119000302012144A7FD0121367E4FF121367AF96
:1011A00033121367AF32121367AF30121367021492
:1011B0005F8F308D318B32E53175F00A84C454F085
:1011C000FFE53175F00A84E5F04FF531E53275F051
:1011D0000A84C454F0FFE53275F00A84E5F04FF557
:1011E00032E53375F00A84C454F0FFE53375F00A34
:1011F00084E5F04FF53312144A7FD01213677F0352
:10120000121367AF30121367AF31121367AF321288
:101210001367AF3312136702145FC2A0C2A27F1418
:101220007E001212E87F031213A5D2A2C2A27F058C
:101230007E001212E87F031213A5D2A2C2A27F641D
:101240001214437F031213A5D2A2C2A27F017E0013
:101250001212E87F021213A5D2A2C2A21F7E0012B0
:1012600012E87F281213087F0C1213087F01121353
:10127000087F06021308E4FFFEEEC394087480940E
:10128000805013D291D290EF25E0FF3091034307B5
:1012900001C2900E80E3300203021451121458224E
:1012A0007F0F7E00E4FDFCC3ED9FEC9E5015E4FB38
:1012B000FA0BBB00010AEB647D4A70F50DBD00011D
:1012C0000C80E4228F3012144A7FD0121367AF30A3
:1012D00012136712144A7FD1121367C202121276D8
:1012E0008F3112145FAF3122E4FDFCC3ED9FEC9E01
:1012F0005015E4FBFA0BBB00010AEB647B4A70F566
:101300000DBD00010C80E422AE07C2A012139ED2D4
:10131000A2C2A2EF24FE60030470077F027E0002D7
:1013200012E87F25121443228B3A8A3B893CE4FD64
:10133000AB3AAA3BA93C8D8275830012106FFF6007
:10134000061213EF0D80E9228B378A388939EF6452
:10135000017FC070027F80ED142FFF121308AB379E
:10136000AA38A939021328E4FEEEC39408748094C5
:1013700080500FEF339291D290C290EF25E0FF0E94
:1013800080E702142A8F308D3112144A7FD0121355
:1013900067AF30121367AF3112136702145F121375
:1013A000CDD2A2C2A2EFA2E392A7A2E292A6A2E1AC
:1013B00092A51392A4228B37EF64017FC070027F45
:1013C00080ED142FFF121308AF370213EFEF3392A3
:1013D000A7EFA2E692A6A2E592A5A2E492A42275A6
:1013E0008CFC758A74D28C308DFDC28CC28D22AE7D
:1013F00007D2A012139ED2A2C2A27F290214437F59
:10140000307E75EF1FAC0670011E4C70F622E4FFB3
:101410001212C4AD0753057FE4FF021385C0E00537
:101420000BE50B7002050AD0E032D291D290A29166
:101430009202C290A20222787FE4F6D8FD75813E26
:10144000020006AE071FEE70FA22D290C291C2903F
:1014500022C291D290C29022D291D290C29022C246
:1014600091D290D29122D290D2912253554E004DDA
:101470004F4E0054554500574544005448550046CA
:1014800052490053415400202020202020202020B9
:1014900020202020202020002F323000504D0041FD
:1014A0004D0020200020202000202020200032306D
:1014B00000434149204441542042414F2054485563
:1014C0004300444F4E4720484F2042414D2047495A
:1014D0004F00FF146BFF146FFF1473FF1477FF149A
:0714E0007BFF147FFF148362
:00000001FF
